{
  "contractName": "ServiceMarketplace",
  "abi": [
    {
      "inputs": [],
      "stateMutability": "nonpayable",
      "type": "constructor"
    },
    {
      "inputs": [],
      "name": "InvalidState",
      "type": "error"
    },
    {
      "inputs": [],
      "name": "OnlyOwner",
      "type": "error"
    },
    {
      "inputs": [],
      "name": "SenderIsNotServiceOwner",
      "type": "error"
    },
    {
      "inputs": [],
      "name": "ServiceHasOwner",
      "type": "error"
    },
    {
      "inputs": [],
      "name": "ServiceIsNotCreated",
      "type": "error"
    },
    {
      "inputs": [],
      "name": "isStopped",
      "outputs": [
        {
          "internalType": "bool",
          "name": "",
          "type": "bool"
        }
      ],
      "stateMutability": "view",
      "type": "function",
      "constant": true
    },
    {
      "stateMutability": "payable",
      "type": "receive",
      "payable": true
    },
    {
      "inputs": [
        {
          "internalType": "uint256",
          "name": "amount",
          "type": "uint256"
        }
      ],
      "name": "withdraw",
      "outputs": [],
      "stateMutability": "nonpayable",
      "type": "function"
    },
    {
      "inputs": [],
      "name": "emergencyWithdraw",
      "outputs": [],
      "stateMutability": "nonpayable",
      "type": "function"
    },
    {
      "inputs": [],
      "name": "selfDestruct",
      "outputs": [],
      "stateMutability": "nonpayable",
      "type": "function"
    },
    {
      "inputs": [],
      "name": "stopContract",
      "outputs": [],
      "stateMutability": "nonpayable",
      "type": "function"
    },
    {
      "inputs": [],
      "name": "resumeContract",
      "outputs": [],
      "stateMutability": "nonpayable",
      "type": "function"
    },
    {
      "inputs": [
        {
          "internalType": "bytes16",
          "name": "serviceId",
          "type": "bytes16"
        },
        {
          "internalType": "bytes32",
          "name": "proof",
          "type": "bytes32"
        }
      ],
      "name": "purchaseService",
      "outputs": [],
      "stateMutability": "payable",
      "type": "function",
      "payable": true
    },
    {
      "inputs": [
        {
          "internalType": "bytes32",
          "name": "serviceHash",
          "type": "bytes32"
        }
      ],
      "name": "repurchaseService",
      "outputs": [],
      "stateMutability": "payable",
      "type": "function",
      "payable": true
    },
    {
      "inputs": [
        {
          "internalType": "bytes32",
          "name": "serviceHash",
          "type": "bytes32"
        }
      ],
      "name": "activateService",
      "outputs": [],
      "stateMutability": "nonpayable",
      "type": "function"
    },
    {
      "inputs": [
        {
          "internalType": "bytes32",
          "name": "serviceHash",
          "type": "bytes32"
        }
      ],
      "name": "deactivateService",
      "outputs": [],
      "stateMutability": "nonpayable",
      "type": "function"
    },
    {
      "inputs": [
        {
          "internalType": "address",
          "name": "newOwner",
          "type": "address"
        }
      ],
      "name": "transferOwnership",
      "outputs": [],
      "stateMutability": "nonpayable",
      "type": "function"
    },
    {
      "inputs": [],
      "name": "getServiceCount",
      "outputs": [
        {
          "internalType": "uint256",
          "name": "",
          "type": "uint256"
        }
      ],
      "stateMutability": "view",
      "type": "function",
      "constant": true
    },
    {
      "inputs": [
        {
          "internalType": "uint256",
          "name": "index",
          "type": "uint256"
        }
      ],
      "name": "getServiceHashAtIndex",
      "outputs": [
        {
          "internalType": "bytes32",
          "name": "",
          "type": "bytes32"
        }
      ],
      "stateMutability": "view",
      "type": "function",
      "constant": true
    },
    {
      "inputs": [
        {
          "internalType": "bytes32",
          "name": "serviceHash",
          "type": "bytes32"
        }
      ],
      "name": "getServiceByHash",
      "outputs": [
        {
          "components": [
            {
              "internalType": "uint256",
              "name": "id",
              "type": "uint256"
            },
            {
              "internalType": "uint256",
              "name": "price",
              "type": "uint256"
            },
            {
              "internalType": "bytes32",
              "name": "proof",
              "type": "bytes32"
            },
            {
              "internalType": "address",
              "name": "owner",
              "type": "address"
            },
            {
              "internalType": "enum ServiceMarketplace.State",
              "name": "state",
              "type": "uint8"
            }
          ],
          "internalType": "struct ServiceMarketplace.Service",
          "name": "",
          "type": "tuple"
        }
      ],
      "stateMutability": "view",
      "type": "function",
      "constant": true
    },
    {
      "inputs": [],
      "name": "getContractOwner",
      "outputs": [
        {
          "internalType": "address",
          "name": "",
          "type": "address"
        }
      ],
      "stateMutability": "view",
      "type": "function",
      "constant": true
    }
  ],
  "bytecode": "0x608060405260008060006101000a81548160ff02191690831515021790555034801561002a57600080fd5b5061003a3361003f60201b60201c565b610083565b80600460006101000a81548173ffffffffffffffffffffffffffffffffffffffff021916908373ffffffffffffffffffffffffffffffffffffffff16021790555050565b6119d7806100926000396000f3fe6080604052600436106100ec5760003560e01c8063442890d51161008a578063c07798b011610059578063c07798b014610297578063c4bc5da5146102d4578063db2e21bc146102eb578063f2fde38b14610302576100f3565b8063442890d5146102105780634fcd5e311461023b5780639cb8a26a14610257578063beebd6821461026e576100f3565b80633295ff93116100c65780633295ff93146101755780633672404e1461019e5780633941b89b146101c95780633f683b6a146101e5576100f3565b806312253a6c146100f8578063234ba4ce1461010f5780632e1a7d4d1461014c576100f3565b366100f357005b600080fd5b34801561010457600080fd5b5061010d61032b565b005b34801561011b57600080fd5b506101366004803603810190610131919061146a565b6103b3565b6040516101439190611705565b60405180910390f35b34801561015857600080fd5b50610173600480360381019061016e9190611493565b6104db565b005b34801561018157600080fd5b5061019c6004803603810190610197919061146a565b610619565b005b3480156101aa57600080fd5b506101b3610805565b6040516101c09190611720565b60405180910390f35b6101e360048036038101906101de919061146a565b61080f565b005b3480156101f157600080fd5b506101fa6109d6565b604051610207919061168f565b60405180910390f35b34801561021c57600080fd5b506102256109e7565b6040516102329190611674565b60405180910390f35b6102556004803603810190610250919061142e565b610a11565b005b34801561026357600080fd5b5061026c610c16565b005b34801561027a57600080fd5b506102956004803603810190610290919061146a565b610cd4565b005b3480156102a357600080fd5b506102be60048036038101906102b99190611493565b610f9f565b6040516102cb91906116aa565b60405180910390f35b3480156102e057600080fd5b506102e9610fbc565b005b3480156102f757600080fd5b50610300611044565b005b34801561030e57600080fd5b5061032960048036038101906103249190611405565b611198565b005b6103336109e7565b73ffffffffffffffffffffffffffffffffffffffff163373ffffffffffffffffffffffffffffffffffffffff1614610397576040517f5fc483c500000000000000000000000000000000000000000000000000000000815260040160405180910390fd5b60016000806101000a81548160ff021916908315150217905550565b6103bb611331565b600160008381526020019081526020016000206040518060a00160405290816000820154815260200160018201548152602001600282015481526020016003820160009054906101000a900473ffffffffffffffffffffffffffffffffffffffff1673ffffffffffffffffffffffffffffffffffffffff1673ffffffffffffffffffffffffffffffffffffffff1681526020016003820160149054906101000a900460ff166002811115610498577f4e487b7100000000000000000000000000000000000000000000000000000000600052602160045260246000fd5b60028111156104d0577f4e487b7100000000000000000000000000000000000000000000000000000000600052602160045260246000fd5b815250509050919050565b6104e36109e7565b73ffffffffffffffffffffffffffffffffffffffff163373ffffffffffffffffffffffffffffffffffffffff1614610547576040517f5fc483c500000000000000000000000000000000000000000000000000000000815260040160405180910390fd5b6000600460009054906101000a900473ffffffffffffffffffffffffffffffffffffffff1673ffffffffffffffffffffffffffffffffffffffff168260405161058f9061165f565b60006040518083038185875af1925050503d80600081146105cc576040519150601f19603f3d011682016040523d82523d6000602084013e6105d1565b606091505b5050905080610615576040517f08c379a000000000000000000000000000000000000000000000000000000000815260040161060c906116c5565b60405180910390fd5b5050565b60008054906101000a900460ff161561063157600080fd5b6106396109e7565b73ffffffffffffffffffffffffffffffffffffffff163373ffffffffffffffffffffffffffffffffffffffff161461069d576040517f5fc483c500000000000000000000000000000000000000000000000000000000815260040160405180910390fd5b6106a681611210565b6106dc576040517fe83f58f600000000000000000000000000000000000000000000000000000000815260040160405180910390fd5b60006001600083815260200190815260200160002090506000600281111561072d577f4e487b7100000000000000000000000000000000000000000000000000000000600052602160045260246000fd5b8160030160149054906101000a900460ff166002811115610777577f4e487b7100000000000000000000000000000000000000000000000000000000600052602160045260246000fd5b146107ae576040517fbaf3f0f700000000000000000000000000000000000000000000000000000000815260040160405180910390fd5b60018160030160146101000a81548160ff021916908360028111156107fc577f4e487b7100000000000000000000000000000000000000000000000000000000600052602160045260246000fd5b02179055505050565b6000600354905090565b60008054906101000a900460ff161561082757600080fd5b61083081611210565b610866576040517fe83f58f600000000000000000000000000000000000000000000000000000000815260040160405180910390fd5b61086f8161127f565b6108a5576040517ff85ec46500000000000000000000000000000000000000000000000000000000815260040160405180910390fd5b60006001600083815260200190815260200160002090506002808111156108f5577f4e487b7100000000000000000000000000000000000000000000000000000000600052602160045260246000fd5b8160030160149054906101000a900460ff16600281111561093f577f4e487b7100000000000000000000000000000000000000000000000000000000600052602160045260246000fd5b14610976576040517fbaf3f0f700000000000000000000000000000000000000000000000000000000815260040160405180910390fd5b60008160030160146101000a81548160ff021916908360028111156109c4577f4e487b7100000000000000000000000000000000000000000000000000000000600052602160045260246000fd5b02179055503481600101819055505050565b60008054906101000a900460ff1681565b6000600460009054906101000a900473ffffffffffffffffffffffffffffffffffffffff16905090565b60008054906101000a900460ff1615610a2957600080fd5b60008233604051602001610a3e929190611633565b604051602081830303815290604052805190602001209050610a5f8161127f565b15610a96576040517f0b66e9a500000000000000000000000000000000000000000000000000000000815260040160405180910390fd5b600060036000815480929190610aab906117fa565b9190505590508160026000838152602001908152602001600020819055506040518060a001604052808281526020013481526020018481526020013373ffffffffffffffffffffffffffffffffffffffff16815260200160006002811115610b3c577f4e487b7100000000000000000000000000000000000000000000000000000000600052602160045260246000fd5b8152506001600084815260200190815260200160002060008201518160000155602082015181600101556040820151816002015560608201518160030160006101000a81548173ffffffffffffffffffffffffffffffffffffffff021916908373ffffffffffffffffffffffffffffffffffffffff16021790555060808201518160030160146101000a81548160ff02191690836002811115610c08577f4e487b7100000000000000000000000000000000000000000000000000000000600052602160045260246000fd5b021790555090505050505050565b60008054906101000a900460ff16610c2d57600080fd5b610c356109e7565b73ffffffffffffffffffffffffffffffffffffffff163373ffffffffffffffffffffffffffffffffffffffff1614610c99576040517f5fc483c500000000000000000000000000000000000000000000000000000000815260040160405180910390fd5b600460009054906101000a900473ffffffffffffffffffffffffffffffffffffffff1673ffffffffffffffffffffffffffffffffffffffff16ff5b60008054906101000a900460ff1615610cec57600080fd5b610cf46109e7565b73ffffffffffffffffffffffffffffffffffffffff163373ffffffffffffffffffffffffffffffffffffffff1614610d58576040517f5fc483c500000000000000000000000000000000000000000000000000000000815260040160405180910390fd5b610d6181611210565b610d97576040517fe83f58f600000000000000000000000000000000000000000000000000000000815260040160405180910390fd5b600060016000838152602001908152602001600020905060006002811115610de8577f4e487b7100000000000000000000000000000000000000000000000000000000600052602160045260246000fd5b8160030160149054906101000a900460ff166002811115610e32577f4e487b7100000000000000000000000000000000000000000000000000000000600052602160045260246000fd5b14610e69576040517fbaf3f0f700000000000000000000000000000000000000000000000000000000815260040160405180910390fd5b60008160030160009054906101000a900473ffffffffffffffffffffffffffffffffffffffff1673ffffffffffffffffffffffffffffffffffffffff168260010154604051610eb79061165f565b60006040518083038185875af1925050503d8060008114610ef4576040519150601f19603f3d011682016040523d82523d6000602084013e610ef9565b606091505b5050905080610f3d576040517f08c379a0000000000000000000000000000000000000000000000000000000008152600401610f34906116e5565b60405180910390fd5b60028260030160146101000a81548160ff02191690836002811115610f8b577f4e487b7100000000000000000000000000000000000000000000000000000000600052602160045260246000fd5b021790555060008260010181905550505050565b600060026000838152602001908152602001600020549050919050565b610fc46109e7565b73ffffffffffffffffffffffffffffffffffffffff163373ffffffffffffffffffffffffffffffffffffffff1614611028576040517f5fc483c500000000000000000000000000000000000000000000000000000000815260040160405180910390fd5b60008060006101000a81548160ff021916908315150217905550565b60008054906101000a900460ff1661105b57600080fd5b6110636109e7565b73ffffffffffffffffffffffffffffffffffffffff163373ffffffffffffffffffffffffffffffffffffffff16146110c7576040517f5fc483c500000000000000000000000000000000000000000000000000000000815260040160405180910390fd5b6000600460009054906101000a900473ffffffffffffffffffffffffffffffffffffffff1673ffffffffffffffffffffffffffffffffffffffff164760405161110f9061165f565b60006040518083038185875af1925050503d806000811461114c576040519150601f19603f3d011682016040523d82523d6000602084013e611151565b606091505b5050905080611195576040517f08c379a000000000000000000000000000000000000000000000000000000000815260040161118c906116c5565b60405180910390fd5b50565b6111a06109e7565b73ffffffffffffffffffffffffffffffffffffffff163373ffffffffffffffffffffffffffffffffffffffff1614611204576040517f5fc483c500000000000000000000000000000000000000000000000000000000815260040160405180910390fd5b61120d816112ed565b50565b60008073ffffffffffffffffffffffffffffffffffffffff166001600084815260200190815260200160002060030160009054906101000a900473ffffffffffffffffffffffffffffffffffffffff1673ffffffffffffffffffffffffffffffffffffffff1614159050919050565b60003373ffffffffffffffffffffffffffffffffffffffff166001600084815260200190815260200160002060030160009054906101000a900473ffffffffffffffffffffffffffffffffffffffff1673ffffffffffffffffffffffffffffffffffffffff16149050919050565b80600460006101000a81548173ffffffffffffffffffffffffffffffffffffffff021916908373ffffffffffffffffffffffffffffffffffffffff16021790555050565b6040518060a00160405280600081526020016000815260200160008019168152602001600073ffffffffffffffffffffffffffffffffffffffff168152602001600060028111156113ab577f4e487b7100000000000000000000000000000000000000000000000000000000600052602160045260246000fd5b81525090565b6000813590506113c081611945565b92915050565b6000813590506113d58161195c565b92915050565b6000813590506113ea81611973565b92915050565b6000813590506113ff8161198a565b92915050565b60006020828403121561141757600080fd5b6000611425848285016113b1565b91505092915050565b6000806040838503121561144157600080fd5b600061144f858286016113c6565b9250506020611460858286016113db565b9150509250929050565b60006020828403121561147c57600080fd5b600061148a848285016113db565b91505092915050565b6000602082840312156114a557600080fd5b60006114b3848285016113f0565b91505092915050565b6114c581611757565b82525050565b6114d481611757565b82525050565b6114eb6114e682611757565b611843565b82525050565b6114fa81611769565b82525050565b61151161150c82611775565b611855565b82525050565b611520816117a1565b82525050565b61152f816117a1565b82525050565b61153e816117e8565b82525050565b6000611551600f83611746565b915061155c826118dc565b602082019050919050565b600061157460008361173b565b915061157f82611905565b600082019050919050565b6000611597600f83611746565b91506115a282611908565b602082019050919050565b60a0820160008201516115c36000850182611615565b5060208201516115d66020850182611615565b5060408201516115e96040850182611517565b5060608201516115fc60608501826114bc565b50608082015161160f6080850182611535565b50505050565b61161e816117de565b82525050565b61162d816117de565b82525050565b600061163f8285611500565b60108201915061164f82846114da565b6014820191508190509392505050565b600061166a82611567565b9150819050919050565b600060208201905061168960008301846114cb565b92915050565b60006020820190506116a460008301846114f1565b92915050565b60006020820190506116bf6000830184611526565b92915050565b600060208201905081810360008301526116de81611544565b9050919050565b600060208201905081810360008301526116fe8161158a565b9050919050565b600060a08201905061171a60008301846115ad565b92915050565b60006020820190506117356000830184611624565b92915050565b600081905092915050565b600082825260208201905092915050565b6000611762826117be565b9050919050565b60008115159050919050565b60007fffffffffffffffffffffffffffffffff0000000000000000000000000000000082169050919050565b6000819050919050565b60008190506117b982611931565b919050565b600073ffffffffffffffffffffffffffffffffffffffff82169050919050565b6000819050919050565b60006117f3826117ab565b9050919050565b6000611805826117de565b91507fffffffffffffffffffffffffffffffffffffffffffffffffffffffffffffffff82141561183857611837611871565b5b600182019050919050565b600061184e8261185f565b9050919050565b6000819050919050565b600061186a826118cf565b9050919050565b7f4e487b7100000000000000000000000000000000000000000000000000000000600052601160045260246000fd5b7f4e487b7100000000000000000000000000000000000000000000000000000000600052602160045260246000fd5b60008160601b9050919050565b7f5472616e73666572204661696c65640000000000000000000000000000000000600082015250565b50565b7f7472616e73666572206661696c65640000000000000000000000000000000000600082015250565b60038110611942576119416118a0565b5b50565b61194e81611757565b811461195957600080fd5b50565b61196581611775565b811461197057600080fd5b50565b61197c816117a1565b811461198757600080fd5b50565b611993816117de565b811461199e57600080fd5b5056fea2646970667358221220fe2b884e07848a1bf0f8426abc64b2a23ba16afcb9172ae786553a56cae8c88a64736f6c63430008040033",
  "immutableReferences": {},
  "source": "// SPDX-License-Identifier: MIT\r\npragma solidity >=0.4.22 <0.9.0;\r\ncontract ServiceMarketplace {\r\n  enum State {\r\n    Purchased,\r\n    Activated,\r\n    Deactivated\r\n  }\r\n  struct Service {\r\n    uint id; // 32\r\n    uint price; // 32\r\n    bytes32 proof; // 32\r\n    address owner; // 20\r\n    State state; // 1\r\n  }\r\n\r\n  bool public isStopped = false;\r\n\r\n  // mapping of serviceHash to Service data\r\n  mapping(bytes32 => Service) private ownedServices;\r\n  // mapping of serviceID to serviceHash\r\n  mapping(uint => bytes32) private ownedServiceHash;\r\n  // number of all services + id of the service\r\n  uint private totalOwnedServices;\r\n  \r\n  address payable private owner;\r\n  \r\n  constructor() {\r\n    setContractOwner(msg.sender);\r\n  }\r\n\r\n  /// Service has invalid state!\r\n  error InvalidState();\r\n\r\n  /// Service is not created!\r\n  error ServiceIsNotCreated();\r\n\r\n  /// Service has already a Owner!\r\n  error ServiceHasOwner();\r\n  \r\n  /// Sender is not service owner!\r\n  error SenderIsNotServiceOwner();\r\n\r\n  /// Only owner has an access!\r\n  error OnlyOwner();\r\n\r\n  modifier onlyOwner() {\r\n    if (msg.sender != getContractOwner()) {\r\n      revert OnlyOwner();\r\n    }\r\n    _;\r\n  }\r\n\r\n  modifier onlyWhenNotStoped {\r\n    require(!isStopped);\r\n    _;\r\n  }\r\n\r\n  modifier onlyWhenStopped {\r\n    require(isStopped);\r\n    _;\r\n  }\r\n\r\n  receive() external payable {}\r\n\r\n  function withdraw(uint amount) \r\n    external\r\n    onlyOwner\r\n  {\r\n   (bool success, ) = owner.call{value: amount}(\"\");\r\n   require(success, \"Transfer Failed\");\r\n  }\r\n\r\n  function emergencyWithdraw() \r\n    external\r\n    onlyWhenStopped\r\n    onlyOwner\r\n  {\r\n   (bool success, ) = owner.call{value: address(this).balance}(\"\");\r\n   require(success, \"Transfer Failed\");\r\n  }\r\n\r\n  function selfDestruct()\r\n    external\r\n    onlyWhenStopped\r\n    onlyOwner\r\n    {\r\n      selfdestruct(owner);\r\n    }\r\n\r\n  function stopContract() \r\n    external \r\n    onlyOwner \r\n  {\r\n    isStopped = true;\r\n  }\r\n\r\n  function resumeContract() \r\n    external \r\n    onlyOwner \r\n  {\r\n    isStopped = false;\r\n  }\r\n\r\n  function purchaseService(\r\n    bytes16 serviceId, // 0x00000000000000000000000000003130\r\n    bytes32 proof // 0x0000000000000000000000000000313000000000000000000000000000003130\r\n  )\r\n    external\r\n    payable\r\n    onlyWhenNotStoped\r\n  {\r\n    bytes32 serviceHash = keccak256(abi.encodePacked(serviceId, msg.sender));\r\n    if (hasServiceOwnership(serviceHash)) {\r\n      revert ServiceHasOwner();\r\n    }\r\n    uint id = totalOwnedServices++;\r\n    ownedServiceHash[id] = serviceHash;\r\n    ownedServices[serviceHash] = Service({\r\n      id: id,\r\n      price: msg.value,\r\n      proof: proof,\r\n      owner: msg.sender,\r\n      state: State.Purchased\r\n    });\r\n  }\r\n\r\n  function repurchaseService(bytes32 serviceHash) \r\n    external\r\n    payable\r\n    onlyWhenNotStoped\r\n  {\r\n    if (!isServiceCreated(serviceHash)) {\r\n      revert ServiceIsNotCreated();\r\n    }\r\n    \r\n    if (!hasServiceOwnership(serviceHash)) {\r\n      revert SenderIsNotServiceOwner();\r\n    }\r\n\r\n    Service storage service = ownedServices[serviceHash];\r\n\r\n    if (service.state != State.Deactivated) {\r\n      revert InvalidState();\r\n    } \r\n    \r\n    service.state = State.Purchased;\r\n    service.price = msg.value;\r\n  }\r\n\r\n  function activateService(bytes32 serviceHash)\r\n    external\r\n    onlyWhenNotStoped\r\n    onlyOwner\r\n  {\r\n\r\n    if (!isServiceCreated(serviceHash)) {\r\n      revert ServiceIsNotCreated();\r\n    }\r\n\r\n    Service storage service = ownedServices[serviceHash];\r\n\r\n    if (service.state != State.Purchased) {\r\n      revert InvalidState();\r\n    }\r\n\r\n    service.state = State.Activated;\r\n  }\r\n\r\n  function deactivateService(bytes32 serviceHash)\r\n    external\r\n    onlyWhenNotStoped\r\n    onlyOwner\r\n  {\r\n\r\n    if (!isServiceCreated(serviceHash)) {\r\n      revert ServiceIsNotCreated();\r\n    }\r\n\r\n    Service storage service = ownedServices[serviceHash];\r\n\r\n    if (service.state != State.Purchased) {\r\n      revert InvalidState();\r\n    }\r\n\r\n    (bool success, ) = service.owner.call{value: service.price}(\"\");\r\n    require(success, \"transfer failed\");\r\n\r\n    service.state = State.Deactivated;\r\n    service.price = 0;\r\n  }\r\n\r\n  function transferOwnership(address newOwner)\r\n    external\r\n    onlyOwner\r\n  {\r\n    setContractOwner(newOwner);\r\n  }\r\n\r\n  function getServiceCount()\r\n    external\r\n    view\r\n    returns (uint)\r\n  {\r\n    return totalOwnedServices;\r\n  }\r\n  function getServiceHashAtIndex(uint index)\r\n    external\r\n    view\r\n    returns (bytes32)\r\n  {\r\n    return ownedServiceHash[index];\r\n  }\r\n  function getServiceByHash(bytes32 serviceHash)\r\n    external\r\n    view\r\n    returns (Service memory)\r\n  {\r\n    return ownedServices[serviceHash];\r\n  }\r\n\r\n  function getContractOwner()\r\n    public\r\n    view\r\n    returns (address)\r\n  {\r\n    return owner;\r\n  }\r\n\r\n  function setContractOwner(address newOwner) private {\r\n    owner = payable(newOwner);\r\n  }\r\n\r\n function isServiceCreated(bytes32 serviceHash)\r\n   private\r\n   view\r\n   returns (bool) \r\n  {\r\n    return ownedServices[serviceHash].owner != 0x0000000000000000000000000000000000000000;\r\n  }\r\n  \r\n  function hasServiceOwnership(bytes32 serviceHash)\r\n    private\r\n    view\r\n    returns (bool)\r\n  {\r\n    return ownedServices[serviceHash].owner == msg.sender;\r\n  }\r\n}",
  "sourcePath": "C:\\blockchaincourse\\marketplace\\contracts\\ServiceMarketplace.sol",
  "compiler": {
    "name": "solc",
    "version": "0.8.4+commit.c7e474f2.Emscripten.clang"
  },
  "schemaVersion": "3.4.11",
  "updatedAt": "2023-01-20T18:09:51.949Z",
  "networkType": "ethereum",
  "devdoc": {
    "kind": "dev",
    "methods": {},
    "version": 1
  },
  "userdoc": {
    "errors": {
      "InvalidState()": [
        {
          "notice": "Service has invalid state!"
        }
      ],
      "OnlyOwner()": [
        {
          "notice": "Only owner has an access!"
        }
      ],
      "SenderIsNotServiceOwner()": [
        {
          "notice": "Sender is not service owner!"
        }
      ],
      "ServiceHasOwner()": [
        {
          "notice": "Service has already a Owner!"
        }
      ],
      "ServiceIsNotCreated()": [
        {
          "notice": "Service is not created!"
        }
      ]
    },
    "kind": "user",
    "methods": {},
    "version": 1
  }
}